2018/07/30 10:59:56.041769 8=FIX.4.2|9=61|35=A|34=1|49=TW|52=20180730-10:59:56.041|56=ISLD|98=0|108=30|10=214|
2018/07/30 10:59:56.043025 8=FIX.4.2|9=61|35=A|34=1|49=ISLD|52=20180730-10:59:56.042|56=TW|98=0|108=30|10=215|
2018/07/30 11:00:26.046528 8=FIX.4.2|9=49|35=0|34=2|49=TW|52=20180730-11:00:26.046|56=ISLD|10=168|
2018/07/30 11:00:26.046954 8=FIX.4.2|9=49|35=0|34=2|49=ISLD|52=20180730-11:00:26.046|56=TW|10=168|
2018/07/30 11:00:56.048935 8=FIX.4.2|9=49|35=0|34=3|49=TW|52=20180730-11:00:56.048|56=ISLD|10=174|
2018/07/30 11:00:56.049520 8=FIX.4.2|9=49|35=0|34=3|49=ISLD|52=20180730-11:00:56.049|56=TW|10=175|
2018/07/30 11:01:26.050052 8=FIX.4.2|9=49|35=0|34=4|49=TW|52=20180730-11:01:26.050|56=ISLD|10=166|
2018/07/30 11:01:26.054998 8=FIX.4.2|9=49|35=0|34=4|49=ISLD|52=20180730-11:01:26.054|56=TW|10=170|
2018/07/30 11:01:56.054366 8=FIX.4.2|9=49|35=0|34=5|49=TW|52=20180730-11:01:56.054|56=ISLD|10=174|
2018/07/30 11:01:56.060711 8=FIX.4.2|9=49|35=0|34=5|49=ISLD|52=20180730-11:01:56.060|56=TW|10=171|
2018/07/30 11:02:26.059032 8=FIX.4.2|9=49|35=0|34=6|49=TW|52=20180730-11:02:26.058|56=ISLD|10=177|
2018/07/30 11:02:26.066327 8=FIX.4.2|9=49|35=0|34=6|49=ISLD|52=20180730-11:02:26.066|56=TW|10=176|
2018/07/30 11:02:56.060519 8=FIX.4.2|9=49|35=0|34=7|49=TW|52=20180730-11:02:56.060|56=ISLD|10=174|
2018/07/30 11:02:56.071372 8=FIX.4.2|9=49|35=0|34=7|49=ISLD|52=20180730-11:02:56.070|56=TW|10=175|
2018/07/30 11:03:26.062071 8=FIX.4.2|9=49|35=0|34=8|49=TW|52=20180730-11:03:26.062|56=ISLD|10=175|
2018/07/30 11:03:26.072604 8=FIX.4.2|9=49|35=0|34=8|49=ISLD|52=20180730-11:03:26.072|56=TW|10=176|
2018/07/30 11:03:56.063479 8=FIX.4.2|9=49|35=0|34=9|49=TW|52=20180730-11:03:56.063|56=ISLD|10=180|
2018/07/30 11:03:56.079759 8=FIX.4.2|9=49|35=0|34=9|49=ISLD|52=20180730-11:03:56.078|56=TW|10=186|
2018/07/30 11:04:26.067411 8=FIX.4.2|9=50|35=0|34=10|49=TW|52=20180730-11:04:26.067|56=ISLD|10=214|
2018/07/30 11:04:26.084384 8=FIX.4.2|9=50|35=0|34=10|49=ISLD|52=20180730-11:04:26.084|56=TW|10=213|
2018/07/30 11:04:56.068656 8=FIX.4.2|9=50|35=0|34=11|49=TW|52=20180730-11:04:56.068|56=ISLD|10=219|
2018/07/30 11:04:56.087067 8=FIX.4.2|9=50|35=0|34=11|49=ISLD|52=20180730-11:04:56.086|56=TW|10=219|
2018/07/30 11:05:26.069873 8=FIX.4.2|9=50|35=0|34=12|49=TW|52=20180730-11:05:26.069|56=ISLD|10=219|
2018/07/30 11:05:26.088365 8=FIX.4.2|9=50|35=0|34=12|49=ISLD|52=20180730-11:05:26.088|56=TW|10=220|
2018/07/30 11:05:56.072705 8=FIX.4.2|9=50|35=0|34=13|49=TW|52=20180730-11:05:56.072|56=ISLD|10=217|
2018/07/30 11:05:56.089584 8=FIX.4.2|9=50|35=0|34=13|49=ISLD|52=20180730-11:05:56.089|56=TW|10=225|
2018/07/30 11:06:26.078606 8=FIX.4.2|9=50|35=0|34=14|49=TW|52=20180730-11:06:26.078|56=ISLD|10=222|
2018/07/30 11:06:26.092564 8=FIX.4.2|9=50|35=0|34=14|49=ISLD|52=20180730-11:06:26.092|56=TW|10=218|
2018/07/30 11:06:56.082773 8=FIX.4.2|9=50|35=0|34=15|49=TW|52=20180730-11:06:56.082|56=ISLD|10=221|
2018/07/30 11:06:56.101728 8=FIX.4.2|9=50|35=0|34=15|49=ISLD|52=20180730-11:06:56.101|56=TW|10=213|
2018/07/30 11:07:26.094226 8=FIX.4.2|9=50|35=0|34=16|49=TW|52=20180730-11:07:26.094|56=ISLD|10=223|
2018/07/30 11:07:26.116554 8=FIX.4.2|9=50|35=0|34=16|49=ISLD|52=20180730-11:07:26.116|56=TW|10=218|
2018/07/30 11:07:56.101388 8=FIX.4.2|9=50|35=0|34=17|49=TW|52=20180730-11:07:56.101|56=ISLD|10=216|
2018/07/30 11:07:56.123680 8=FIX.4.2|9=50|35=0|34=17|49=ISLD|52=20180730-11:07:56.123|56=TW|10=220|
2018/07/30 11:08:26.102957 8=FIX.4.2|9=50|35=0|34=18|49=TW|52=20180730-11:08:26.102|56=ISLD|10=216|
2018/07/30 11:08:26.127176 8=FIX.4.2|9=50|35=0|34=18|49=ISLD|52=20180730-11:08:26.126|56=TW|10=222|
2018/07/30 11:08:56.107451 8=FIX.4.2|9=50|35=0|34=19|49=TW|52=20180730-11:08:56.107|56=ISLD|10=225|
2018/07/30 11:08:56.132836 8=FIX.4.2|9=50|35=0|34=19|49=ISLD|52=20180730-11:08:56.132|56=TW|10=223|
2018/07/30 11:09:26.110797 8=FIX.4.2|9=50|35=0|34=20|49=TW|52=20180730-11:09:26.110|56=ISLD|10=209|
2018/07/30 11:09:26.138507 8=FIX.4.2|9=50|35=0|34=20|49=ISLD|52=20180730-11:09:26.138|56=TW|10=219|
2018/07/30 11:09:56.116140 8=FIX.4.2|9=50|35=0|34=21|49=TW|52=20180730-11:09:56.116|56=ISLD|10=219|
2018/07/30 11:09:56.144734 8=FIX.4.2|9=50|35=0|34=21|49=ISLD|52=20180730-11:09:56.144|56=TW|10=220|
2018/07/30 11:10:26.117299 8=FIX.4.2|9=50|35=0|34=22|49=TW|52=20180730-11:10:26.117|56=ISLD|10=210|
2018/07/30 11:10:26.147930 8=FIX.4.2|9=50|35=0|34=22|49=ISLD|52=20180730-11:10:26.147|56=TW|10=213|
2018/07/30 11:10:56.121261 8=FIX.4.2|9=50|35=0|34=23|49=TW|52=20180730-11:10:56.121|56=ISLD|10=209|
2018/07/30 11:10:56.150829 8=FIX.4.2|9=50|35=0|34=23|49=ISLD|52=20180730-11:10:56.149|56=TW|10=219|
2018/07/30 11:11:26.126417 8=FIX.4.2|9=50|35=0|34=24|49=TW|52=20180730-11:11:26.126|56=ISLD|10=213|
2018/07/30 11:11:26.157114 8=FIX.4.2|9=50|35=0|34=24|49=ISLD|52=20180730-11:11:26.156|56=TW|10=216|
2018/07/30 11:11:56.128455 8=FIX.4.2|9=50|35=0|34=25|49=TW|52=20180730-11:11:56.128|56=ISLD|10=219|
2018/07/30 11:11:56.162749 8=FIX.4.2|9=50|35=0|34=25|49=ISLD|52=20180730-11:11:56.162|56=TW|10=217|
2018/07/30 11:12:26.132620 8=FIX.4.2|9=50|35=0|34=26|49=TW|52=20180730-11:12:26.132|56=ISLD|10=213|
2018/07/30 11:12:26.163564 8=FIX.4.2|9=50|35=0|34=26|49=ISLD|52=20180730-11:12:26.163|56=TW|10=217|
2018/07/30 11:12:56.134410 8=FIX.4.2|9=50|35=0|34=27|49=TW|52=20180730-11:12:56.134|56=ISLD|10=219|
2018/07/30 11:12:56.164760 8=FIX.4.2|9=50|35=0|34=27|49=ISLD|52=20180730-11:12:56.164|56=TW|10=222|
2018/07/30 11:13:26.136797 8=FIX.4.2|9=50|35=0|34=28|49=TW|52=20180730-11:13:26.136|56=ISLD|10=220|
2018/07/30 11:13:26.170988 8=FIX.4.2|9=50|35=0|34=28|49=ISLD|52=20180730-11:13:26.170|56=TW|10=218|
2018/07/30 11:13:56.139266 8=FIX.4.2|9=50|35=0|34=29|49=TW|52=20180730-11:13:56.139|56=ISLD|10=227|
2018/07/30 11:13:56.172205 8=FIX.4.2|9=50|35=0|34=29|49=ISLD|52=20180730-11:13:56.171|56=TW|10=223|
2018/07/30 11:14:26.144381 8=FIX.4.2|9=50|35=0|34=30|49=TW|52=20180730-11:14:26.144|56=ISLD|10=213|
2018/07/30 11:14:26.174261 8=FIX.4.2|9=50|35=0|34=30|49=ISLD|52=20180730-11:14:26.174|56=TW|10=216|
2018/07/30 11:14:56.145650 8=FIX.4.2|9=50|35=0|34=31|49=TW|52=20180730-11:14:56.145|56=ISLD|10=218|
2018/07/30 11:14:56.175414 8=FIX.4.2|9=50|35=0|34=31|49=ISLD|52=20180730-11:14:56.175|56=TW|10=221|
2018/07/30 11:15:26.146902 8=FIX.4.2|9=50|35=0|34=32|49=TW|52=20180730-11:15:26.146|56=ISLD|10=218|
2018/07/30 11:15:26.181497 8=FIX.4.2|9=50|35=0|34=32|49=ISLD|52=20180730-11:15:26.181|56=TW|10=217|
2018/07/30 11:15:56.151231 8=FIX.4.2|9=50|35=0|34=33|49=TW|52=20180730-11:15:56.151|56=ISLD|10=218|
2018/07/30 11:15:56.182885 8=FIX.4.2|9=50|35=0|34=33|49=ISLD|52=20180730-11:15:56.182|56=TW|10=222|
2018/07/30 11:16:26.157694 8=FIX.4.2|9=50|35=0|34=34|49=TW|52=20180730-11:16:26.157|56=ISLD|10=223|
2018/07/30 11:16:26.183996 8=FIX.4.2|9=50|35=0|34=34|49=ISLD|52=20180730-11:16:26.183|56=TW|10=222|
2018/07/30 11:16:56.161608 8=FIX.4.2|9=50|35=0|34=35|49=TW|52=20180730-11:16:56.161|56=ISLD|10=222|
2018/07/30 11:16:56.186495 8=FIX.4.2|9=50|35=0|34=35|49=ISLD|52=20180730-11:16:56.186|56=TW|10=229|
2018/07/30 11:17:26.163196 8=FIX.4.2|9=50|35=0|34=36|49=TW|52=20180730-11:17:26.163|56=ISLD|10=223|
2018/07/30 11:17:26.191999 8=FIX.4.2|9=50|35=0|34=36|49=ISLD|52=20180730-11:17:26.191|56=TW|10=224|
2018/07/30 11:17:56.164512 8=FIX.4.2|9=50|35=0|34=37|49=TW|52=20180730-11:17:56.164|56=ISLD|10=228|
2018/07/30 11:17:56.200814 8=FIX.4.2|9=50|35=0|34=37|49=ISLD|52=20180730-11:17:56.198|56=TW|10=235|
2018/07/30 11:18:26.166762 8=FIX.4.2|9=50|35=0|34=38|49=TW|52=20180730-11:18:26.166|56=ISLD|10=229|
2018/07/30 11:18:26.200280 8=FIX.4.2|9=50|35=0|34=38|49=ISLD|52=20180730-11:18:26.199|56=TW|10=235|
2018/07/30 11:18:56.173261 8=FIX.4.2|9=50|35=0|34=39|49=TW|52=20180730-11:18:56.173|56=ISLD|10=231|
2018/07/30 11:18:56.201333 8=FIX.4.2|9=50|35=0|34=39|49=ISLD|52=20180730-11:18:56.201|56=TW|10=223|
2018/07/30 11:19:26.179076 8=FIX.4.2|9=50|35=0|34=40|49=TW|52=20180730-11:19:26.178|56=ISLD|10=226|
2018/07/30 11:19:26.202330 8=FIX.4.2|9=50|35=0|34=40|49=ISLD|52=20180730-11:19:26.202|56=TW|10=214|
2018/07/30 11:19:56.180177 8=FIX.4.2|9=50|35=0|34=41|49=TW|52=20180730-11:19:56.180|56=ISLD|10=223|
2018/07/30 11:19:56.203499 8=FIX.4.2|9=50|35=0|34=41|49=ISLD|52=20180730-11:19:56.203|56=TW|10=219|
2018/07/30 11:20:26.181334 8=FIX.4.2|9=50|35=0|34=42|49=TW|52=20180730-11:20:26.181|56=ISLD|10=214|
2018/07/30 11:20:26.206423 8=FIX.4.2|9=50|35=0|34=42|49=ISLD|52=20180730-11:20:26.206|56=TW|10=212|
2018/07/30 11:20:56.182791 8=FIX.4.2|9=50|35=0|34=43|49=TW|52=20180730-11:20:56.182|56=ISLD|10=219|
2018/07/30 11:20:56.212522 8=FIX.4.2|9=50|35=0|34=43|49=ISLD|52=20180730-11:20:56.212|56=TW|10=213|
2018/07/30 11:21:17.042894 8=FIX.4.2|9=50|35=5|34=44|49=ISLD|52=20180730-11:21:17.042|56=TW|10=218|
2018/07/30 11:21:17.043419 8=FIX.4.2|9=50|35=5|34=44|49=TW|52=20180730-11:21:17.043|56=ISLD|10=219|
