2018/07/30 10:59:56.041897 8=FIX.4.3|9=61|35=A|34=1|49=TW|52=20180730-10:59:56.041|56=ISLD|98=0|108=30|10=215|
2018/07/30 10:59:56.043024 8=FIX.4.3|9=61|35=A|34=1|49=ISLD|52=20180730-10:59:56.042|56=TW|98=0|108=30|10=216|
2018/07/30 11:00:26.046739 8=FIX.4.3|9=49|35=0|34=2|49=TW|52=20180730-11:00:26.046|56=ISLD|10=169|
2018/07/30 11:00:26.046846 8=FIX.4.3|9=49|35=0|34=2|49=ISLD|52=20180730-11:00:26.046|56=TW|10=169|
2018/07/30 11:00:56.048642 8=FIX.4.3|9=49|35=0|34=3|49=TW|52=20180730-11:00:56.048|56=ISLD|10=175|
2018/07/30 11:00:56.049511 8=FIX.4.3|9=49|35=0|34=3|49=ISLD|52=20180730-11:00:56.049|56=TW|10=176|
2018/07/30 11:01:26.050081 8=FIX.4.3|9=49|35=0|34=4|49=TW|52=20180730-11:01:26.050|56=ISLD|10=167|
2018/07/30 11:01:26.054924 8=FIX.4.3|9=49|35=0|34=4|49=ISLD|52=20180730-11:01:26.054|56=TW|10=171|
2018/07/30 11:01:56.052289 8=FIX.4.3|9=49|35=0|34=5|49=TW|52=20180730-11:01:56.052|56=ISLD|10=173|
2018/07/30 11:01:56.060567 8=FIX.4.3|9=49|35=0|34=5|49=ISLD|52=20180730-11:01:56.060|56=TW|10=172|
2018/07/30 11:02:26.054324 8=FIX.4.3|9=49|35=0|34=6|49=TW|52=20180730-11:02:26.054|56=ISLD|10=174|
2018/07/30 11:02:26.066233 8=FIX.4.3|9=49|35=0|34=6|49=ISLD|52=20180730-11:02:26.065|56=TW|10=176|
2018/07/30 11:02:56.057739 8=FIX.4.3|9=49|35=0|34=7|49=TW|52=20180730-11:02:56.057|56=ISLD|10=181|
2018/07/30 11:02:56.071218 8=FIX.4.3|9=49|35=0|34=7|49=ISLD|52=20180730-11:02:56.070|56=TW|10=176|
2018/07/30 11:03:26.060318 8=FIX.4.3|9=49|35=0|34=8|49=TW|52=20180730-11:03:26.060|56=ISLD|10=174|
2018/07/30 11:03:26.072589 8=FIX.4.3|9=49|35=0|34=8|49=ISLD|52=20180730-11:03:26.072|56=TW|10=177|
2018/07/30 11:03:56.063315 8=FIX.4.3|9=49|35=0|34=9|49=TW|52=20180730-11:03:56.063|56=ISLD|10=181|
2018/07/30 11:03:56.080876 8=FIX.4.3|9=49|35=0|34=9|49=ISLD|52=20180730-11:03:56.078|56=TW|10=187|
2018/07/30 11:04:26.067507 8=FIX.4.3|9=50|35=0|34=10|49=TW|52=20180730-11:04:26.067|56=ISLD|10=215|
2018/07/30 11:04:26.084384 8=FIX.4.3|9=50|35=0|34=10|49=ISLD|52=20180730-11:04:26.083|56=TW|10=213|
2018/07/30 11:04:56.071648 8=FIX.4.3|9=50|35=0|34=11|49=TW|52=20180730-11:04:56.071|56=ISLD|10=214|
2018/07/30 11:04:56.087122 8=FIX.4.3|9=50|35=0|34=11|49=ISLD|52=20180730-11:04:56.086|56=TW|10=220|
2018/07/30 11:05:26.073608 8=FIX.4.3|9=50|35=0|34=12|49=TW|52=20180730-11:05:26.073|56=ISLD|10=215|
2018/07/30 11:05:26.088495 8=FIX.4.3|9=50|35=0|34=12|49=ISLD|52=20180730-11:05:26.087|56=TW|10=220|
2018/07/30 11:05:56.077250 8=FIX.4.3|9=50|35=0|34=13|49=TW|52=20180730-11:05:56.077|56=ISLD|10=223|
2018/07/30 11:05:56.089413 8=FIX.4.3|9=50|35=0|34=13|49=ISLD|52=20180730-11:05:56.088|56=TW|10=225|
2018/07/30 11:06:26.078811 8=FIX.4.3|9=50|35=0|34=14|49=TW|52=20180730-11:06:26.078|56=ISLD|10=223|
2018/07/30 11:06:26.092571 8=FIX.4.3|9=50|35=0|34=14|49=ISLD|52=20180730-11:06:26.092|56=TW|10=219|
2018/07/30 11:06:56.082978 8=FIX.4.3|9=50|35=0|34=15|49=TW|52=20180730-11:06:56.082|56=ISLD|10=222|
2018/07/30 11:06:56.101749 8=FIX.4.3|9=50|35=0|34=15|49=ISLD|52=20180730-11:06:56.101|56=TW|10=214|
2018/07/30 11:07:26.094241 8=FIX.4.3|9=50|35=0|34=16|49=TW|52=20180730-11:07:26.094|56=ISLD|10=224|
2018/07/30 11:07:26.116566 8=FIX.4.3|9=50|35=0|34=16|49=ISLD|52=20180730-11:07:26.116|56=TW|10=219|
2018/07/30 11:07:56.101388 8=FIX.4.3|9=50|35=0|34=17|49=TW|52=20180730-11:07:56.101|56=ISLD|10=217|
2018/07/30 11:07:56.123711 8=FIX.4.3|9=50|35=0|34=17|49=ISLD|52=20180730-11:07:56.123|56=TW|10=221|
2018/07/30 11:08:26.102986 8=FIX.4.3|9=50|35=0|34=18|49=TW|52=20180730-11:08:26.102|56=ISLD|10=217|
2018/07/30 11:08:26.127267 8=FIX.4.3|9=50|35=0|34=18|49=ISLD|52=20180730-11:08:26.126|56=TW|10=223|
2018/07/30 11:08:56.109140 8=FIX.4.3|9=50|35=0|34=19|49=TW|52=20180730-11:08:56.109|56=ISLD|10=228|
2018/07/30 11:08:56.132857 8=FIX.4.3|9=50|35=0|34=19|49=ISLD|52=20180730-11:08:56.132|56=TW|10=224|
2018/07/30 11:09:26.110459 8=FIX.4.3|9=50|35=0|34=20|49=TW|52=20180730-11:09:26.110|56=ISLD|10=210|
2018/07/30 11:09:26.138604 8=FIX.4.3|9=50|35=0|34=20|49=ISLD|52=20180730-11:09:26.137|56=TW|10=219|
2018/07/30 11:09:56.115572 8=FIX.4.3|9=50|35=0|34=21|49=TW|52=20180730-11:09:56.115|56=ISLD|10=219|
2018/07/30 11:09:56.144845 8=FIX.4.3|9=50|35=0|34=21|49=ISLD|52=20180730-11:09:56.144|56=TW|10=221|
2018/07/30 11:10:26.117300 8=FIX.4.3|9=50|35=0|34=22|49=TW|52=20180730-11:10:26.117|56=ISLD|10=211|
2018/07/30 11:10:26.148013 8=FIX.4.3|9=50|35=0|34=22|49=ISLD|52=20180730-11:10:26.147|56=TW|10=214|
2018/07/30 11:10:56.121543 8=FIX.4.3|9=50|35=0|34=23|49=TW|52=20180730-11:10:56.121|56=ISLD|10=210|
2018/07/30 11:10:56.151109 8=FIX.4.3|9=50|35=0|34=23|49=ISLD|52=20180730-11:10:56.149|56=TW|10=220|
2018/07/30 11:11:26.126621 8=FIX.4.3|9=50|35=0|34=24|49=TW|52=20180730-11:11:26.126|56=ISLD|10=214|
2018/07/30 11:11:26.157131 8=FIX.4.3|9=50|35=0|34=24|49=ISLD|52=20180730-11:11:26.156|56=TW|10=217|
2018/07/30 11:11:56.129264 8=FIX.4.3|9=50|35=0|34=25|49=TW|52=20180730-11:11:56.129|56=ISLD|10=221|
2018/07/30 11:11:56.162888 8=FIX.4.3|9=50|35=0|34=25|49=ISLD|52=20180730-11:11:56.162|56=TW|10=218|
2018/07/30 11:12:26.132600 8=FIX.4.3|9=50|35=0|34=26|49=TW|52=20180730-11:12:26.132|56=ISLD|10=214|
2018/07/30 11:12:26.164028 8=FIX.4.3|9=50|35=0|34=26|49=ISLD|52=20180730-11:12:26.163|56=TW|10=218|
2018/07/30 11:12:56.133983 8=FIX.4.3|9=50|35=0|34=27|49=TW|52=20180730-11:12:56.133|56=ISLD|10=219|
2018/07/30 11:12:56.165282 8=FIX.4.3|9=50|35=0|34=27|49=ISLD|52=20180730-11:12:56.165|56=TW|10=224|
2018/07/30 11:13:26.136686 8=FIX.4.3|9=50|35=0|34=28|49=TW|52=20180730-11:13:26.136|56=ISLD|10=221|
2018/07/30 11:13:26.170950 8=FIX.4.3|9=50|35=0|34=28|49=ISLD|52=20180730-11:13:26.170|56=TW|10=219|
2018/07/30 11:13:56.139256 8=FIX.4.3|9=50|35=0|34=29|49=TW|52=20180730-11:13:56.139|56=ISLD|10=228|
2018/07/30 11:13:56.172199 8=FIX.4.3|9=50|35=0|34=29|49=ISLD|52=20180730-11:13:56.171|56=TW|10=224|
2018/07/30 11:14:26.144478 8=FIX.4.3|9=50|35=0|34=30|49=TW|52=20180730-11:14:26.144|56=ISLD|10=214|
2018/07/30 11:14:26.174311 8=FIX.4.3|9=50|35=0|34=30|49=ISLD|52=20180730-11:14:26.174|56=TW|10=217|
2018/07/30 11:14:56.146040 8=FIX.4.3|9=50|35=0|34=31|49=TW|52=20180730-11:14:56.146|56=ISLD|10=220|
2018/07/30 11:14:56.175403 8=FIX.4.3|9=50|35=0|34=31|49=ISLD|52=20180730-11:14:56.175|56=TW|10=222|
2018/07/30 11:15:26.147384 8=FIX.4.3|9=50|35=0|34=32|49=TW|52=20180730-11:15:26.147|56=ISLD|10=220|
2018/07/30 11:15:26.181515 8=FIX.4.3|9=50|35=0|34=32|49=ISLD|52=20180730-11:15:26.180|56=TW|10=217|
2018/07/30 11:15:56.151276 8=FIX.4.3|9=50|35=0|34=33|49=TW|52=20180730-11:15:56.151|56=ISLD|10=219|
2018/07/30 11:15:56.182885 8=FIX.4.3|9=50|35=0|34=33|49=ISLD|52=20180730-11:15:56.182|56=TW|10=223|
2018/07/30 11:16:26.157710 8=FIX.4.3|9=50|35=0|34=34|49=TW|52=20180730-11:16:26.157|56=ISLD|10=224|
2018/07/30 11:16:26.183996 8=FIX.4.3|9=50|35=0|34=34|49=ISLD|52=20180730-11:16:26.183|56=TW|10=223|
2018/07/30 11:16:56.161279 8=FIX.4.3|9=50|35=0|34=35|49=TW|52=20180730-11:16:56.161|56=ISLD|10=223|
2018/07/30 11:16:56.186482 8=FIX.4.3|9=50|35=0|34=35|49=ISLD|52=20180730-11:16:56.186|56=TW|10=230|
2018/07/30 11:17:26.162677 8=FIX.4.3|9=50|35=0|34=36|49=TW|52=20180730-11:17:26.162|56=ISLD|10=223|
2018/07/30 11:17:26.192117 8=FIX.4.3|9=50|35=0|34=36|49=ISLD|52=20180730-11:17:26.191|56=TW|10=225|
2018/07/30 11:17:56.164246 8=FIX.4.3|9=50|35=0|34=37|49=TW|52=20180730-11:17:56.164|56=ISLD|10=229|
2018/07/30 11:17:56.201148 8=FIX.4.3|9=50|35=0|34=37|49=ISLD|52=20180730-11:17:56.199|56=TW|10=237|
2018/07/30 11:18:26.166638 8=FIX.4.3|9=50|35=0|34=38|49=TW|52=20180730-11:18:26.166|56=ISLD|10=230|
2018/07/30 11:18:26.200820 8=FIX.4.3|9=50|35=0|34=38|49=ISLD|52=20180730-11:18:26.200|56=TW|10=219|
2018/07/30 11:18:56.173040 8=FIX.4.3|9=50|35=0|34=39|49=TW|52=20180730-11:18:56.172|56=ISLD|10=231|
2018/07/30 11:18:56.202256 8=FIX.4.3|9=50|35=0|34=39|49=ISLD|52=20180730-11:18:56.202|56=TW|10=225|
2018/07/30 11:19:26.179203 8=FIX.4.3|9=50|35=0|34=40|49=TW|52=20180730-11:19:26.179|56=ISLD|10=228|
2018/07/30 11:19:26.203533 8=FIX.4.3|9=50|35=0|34=40|49=ISLD|52=20180730-11:19:26.203|56=TW|10=216|
2018/07/30 11:19:56.180364 8=FIX.4.3|9=50|35=0|34=41|49=TW|52=20180730-11:19:56.180|56=ISLD|10=224|
2018/07/30 11:19:56.205156 8=FIX.4.3|9=50|35=0|34=41|49=ISLD|52=20180730-11:19:56.204|56=TW|10=221|
2018/07/30 11:20:26.181524 8=FIX.4.3|9=50|35=0|34=42|49=TW|52=20180730-11:20:26.181|56=ISLD|10=215|
2018/07/30 11:20:26.206830 8=FIX.4.3|9=50|35=0|34=42|49=ISLD|52=20180730-11:20:26.206|56=TW|10=213|
2018/07/30 11:20:56.182798 8=FIX.4.3|9=50|35=0|34=43|49=TW|52=20180730-11:20:56.182|56=ISLD|10=220|
2018/07/30 11:20:56.212680 8=FIX.4.3|9=50|35=0|34=43|49=ISLD|52=20180730-11:20:56.212|56=TW|10=214|
2018/07/30 11:21:17.042690 8=FIX.4.3|9=50|35=5|34=44|49=ISLD|52=20180730-11:21:17.042|56=TW|10=219|
2018/07/30 11:21:17.042868 8=FIX.4.3|9=50|35=5|34=44|49=TW|52=20180730-11:21:17.042|56=ISLD|10=219|
