2018/07/30 10:59:56.041992 8=FIX.4.0|9=57|35=A|34=1|49=TW|52=20180730-10:59:56|56=ISLD|98=0|108=30|10=022|
2018/07/30 10:59:56.043013 8=FIX.4.0|9=57|35=A|34=1|49=ISLD|52=20180730-10:59:56|56=TW|98=0|108=30|10=022|
2018/07/30 11:00:26.046666 8=FIX.4.0|9=45|35=0|34=2|49=TW|52=20180730-11:00:26|56=ISLD|10=218|
2018/07/30 11:00:26.046950 8=FIX.4.0|9=45|35=0|34=2|49=ISLD|52=20180730-11:00:26|56=TW|10=218|
2018/07/30 11:00:56.048646 8=FIX.4.0|9=45|35=0|34=3|49=TW|52=20180730-11:00:56|56=ISLD|10=222|
2018/07/30 11:00:56.049732 8=FIX.4.0|9=45|35=0|34=3|49=ISLD|52=20180730-11:00:56|56=TW|10=222|
2018/07/30 11:01:26.050230 8=FIX.4.0|9=45|35=0|34=4|49=TW|52=20180730-11:01:26|56=ISLD|10=221|
2018/07/30 11:01:26.055061 8=FIX.4.0|9=45|35=0|34=4|49=ISLD|52=20180730-11:01:26|56=TW|10=221|
2018/07/30 11:01:56.052325 8=FIX.4.0|9=45|35=0|34=5|49=TW|52=20180730-11:01:56|56=ISLD|10=225|
2018/07/30 11:01:56.060566 8=FIX.4.0|9=45|35=0|34=5|49=ISLD|52=20180730-11:01:56|56=TW|10=225|
2018/07/30 11:02:26.054302 8=FIX.4.0|9=45|35=0|34=6|49=TW|52=20180730-11:02:26|56=ISLD|10=224|
2018/07/30 11:02:26.066233 8=FIX.4.0|9=45|35=0|34=6|49=ISLD|52=20180730-11:02:26|56=TW|10=224|
2018/07/30 11:02:56.057736 8=FIX.4.0|9=45|35=0|34=7|49=TW|52=20180730-11:02:56|56=ISLD|10=228|
2018/07/30 11:02:56.071278 8=FIX.4.0|9=45|35=0|34=7|49=ISLD|52=20180730-11:02:56|56=TW|10=228|
2018/07/30 11:03:26.060515 8=FIX.4.0|9=45|35=0|34=8|49=TW|52=20180730-11:03:26|56=ISLD|10=227|
2018/07/30 11:03:26.072567 8=FIX.4.0|9=45|35=0|34=8|49=ISLD|52=20180730-11:03:26|56=TW|10=227|
2018/07/30 11:03:56.062793 8=FIX.4.0|9=45|35=0|34=9|49=TW|52=20180730-11:03:56|56=ISLD|10=231|
2018/07/30 11:03:56.081043 8=FIX.4.0|9=45|35=0|34=9|49=ISLD|52=20180730-11:03:56|56=TW|10=231|
2018/07/30 11:04:26.067705 8=FIX.4.0|9=46|35=0|34=10|49=TW|52=20180730-11:04:26|56=ISLD|10=014|
2018/07/30 11:04:26.084386 8=FIX.4.0|9=46|35=0|34=10|49=ISLD|52=20180730-11:04:26|56=TW|10=014|
2018/07/30 11:04:56.071691 8=FIX.4.0|9=46|35=0|34=11|49=TW|52=20180730-11:04:56|56=ISLD|10=018|
2018/07/30 11:04:56.087122 8=FIX.4.0|9=46|35=0|34=11|49=ISLD|52=20180730-11:04:56|56=TW|10=018|
2018/07/30 11:05:26.076010 8=FIX.4.0|9=46|35=0|34=12|49=TW|52=20180730-11:05:26|56=ISLD|10=017|
2018/07/30 11:05:26.088495 8=FIX.4.0|9=46|35=0|34=12|49=ISLD|52=20180730-11:05:26|56=TW|10=017|
2018/07/30 11:05:56.077250 8=FIX.4.0|9=46|35=0|34=13|49=TW|52=20180730-11:05:56|56=ISLD|10=021|
2018/07/30 11:05:56.089580 8=FIX.4.0|9=46|35=0|34=13|49=ISLD|52=20180730-11:05:56|56=TW|10=021|
2018/07/30 11:06:26.078608 8=FIX.4.0|9=46|35=0|34=14|49=TW|52=20180730-11:06:26|56=ISLD|10=020|
2018/07/30 11:06:26.092503 8=FIX.4.0|9=46|35=0|34=14|49=ISLD|52=20180730-11:06:26|56=TW|10=020|
2018/07/30 11:06:56.082706 8=FIX.4.0|9=46|35=0|34=15|49=TW|52=20180730-11:06:56|56=ISLD|10=024|
2018/07/30 11:06:56.101627 8=FIX.4.0|9=46|35=0|34=15|49=ISLD|52=20180730-11:06:56|56=TW|10=024|
2018/07/30 11:07:26.094414 8=FIX.4.0|9=46|35=0|34=16|49=TW|52=20180730-11:07:26|56=ISLD|10=023|
2018/07/30 11:07:26.116471 8=FIX.4.0|9=46|35=0|34=16|49=ISLD|52=20180730-11:07:26|56=TW|10=023|
2018/07/30 11:07:56.101388 8=FIX.4.0|9=46|35=0|34=17|49=TW|52=20180730-11:07:56|56=ISLD|10=027|
2018/07/30 11:07:56.123822 8=FIX.4.0|9=46|35=0|34=17|49=ISLD|52=20180730-11:07:56|56=TW|10=027|
2018/07/30 11:08:26.103693 8=FIX.4.0|9=46|35=0|34=18|49=TW|52=20180730-11:08:26|56=ISLD|10=026|
2018/07/30 11:08:26.127156 8=FIX.4.0|9=46|35=0|34=18|49=ISLD|52=20180730-11:08:26|56=TW|10=026|
2018/07/30 11:08:56.109157 8=FIX.4.0|9=46|35=0|34=19|49=TW|52=20180730-11:08:56|56=ISLD|10=030|
2018/07/30 11:08:56.132752 8=FIX.4.0|9=46|35=0|34=19|49=ISLD|52=20180730-11:08:56|56=TW|10=030|
2018/07/30 11:09:26.110472 8=FIX.4.0|9=46|35=0|34=20|49=TW|52=20180730-11:09:26|56=ISLD|10=020|
2018/07/30 11:09:26.138381 8=FIX.4.0|9=46|35=0|34=20|49=ISLD|52=20180730-11:09:26|56=TW|10=020|
2018/07/30 11:09:56.115912 8=FIX.4.0|9=46|35=0|34=21|49=TW|52=20180730-11:09:56|56=ISLD|10=024|
2018/07/30 11:09:56.144845 8=FIX.4.0|9=46|35=0|34=21|49=ISLD|52=20180730-11:09:56|56=TW|10=024|
2018/07/30 11:10:26.117299 8=FIX.4.0|9=46|35=0|34=22|49=TW|52=20180730-11:10:26|56=ISLD|10=014|
2018/07/30 11:10:26.147889 8=FIX.4.0|9=46|35=0|34=22|49=ISLD|52=20180730-11:10:26|56=TW|10=014|
2018/07/30 11:10:56.121261 8=FIX.4.0|9=46|35=0|34=23|49=TW|52=20180730-11:10:56|56=ISLD|10=018|
2018/07/30 11:10:56.150956 8=FIX.4.0|9=46|35=0|34=23|49=ISLD|52=20180730-11:10:56|56=TW|10=018|
2018/07/30 11:11:26.126165 8=FIX.4.0|9=46|35=0|34=24|49=TW|52=20180730-11:11:26|56=ISLD|10=017|
2018/07/30 11:11:26.156975 8=FIX.4.0|9=46|35=0|34=24|49=ISLD|52=20180730-11:11:26|56=TW|10=017|
2018/07/30 11:11:56.129354 8=FIX.4.0|9=46|35=0|34=25|49=TW|52=20180730-11:11:56|56=ISLD|10=021|
2018/07/30 11:11:56.162923 8=FIX.4.0|9=46|35=0|34=25|49=ISLD|52=20180730-11:11:56|56=TW|10=021|
2018/07/30 11:12:26.132597 8=FIX.4.0|9=46|35=0|34=26|49=TW|52=20180730-11:12:26|56=ISLD|10=020|
2018/07/30 11:12:26.163948 8=FIX.4.0|9=46|35=0|34=26|49=ISLD|52=20180730-11:12:26|56=TW|10=020|
2018/07/30 11:12:56.134896 8=FIX.4.0|9=46|35=0|34=27|49=TW|52=20180730-11:12:56|56=ISLD|10=024|
2018/07/30 11:12:56.165188 8=FIX.4.0|9=46|35=0|34=27|49=ISLD|52=20180730-11:12:56|56=TW|10=024|
2018/07/30 11:13:26.136707 8=FIX.4.0|9=46|35=0|34=28|49=TW|52=20180730-11:13:26|56=ISLD|10=023|
2018/07/30 11:13:26.166205 8=FIX.4.0|9=46|35=0|34=28|49=ISLD|52=20180730-11:13:26|56=TW|10=023|
2018/07/30 11:13:56.139266 8=FIX.4.0|9=46|35=0|34=29|49=TW|52=20180730-11:13:56|56=ISLD|10=027|
2018/07/30 11:13:56.167552 8=FIX.4.0|9=46|35=0|34=29|49=ISLD|52=20180730-11:13:56|56=TW|10=027|
2018/07/30 11:14:26.144493 8=FIX.4.0|9=46|35=0|34=30|49=TW|52=20180730-11:14:26|56=ISLD|10=017|
2018/07/30 11:14:26.169772 8=FIX.4.0|9=46|35=0|34=30|49=ISLD|52=20180730-11:14:26|56=TW|10=017|
2018/07/30 11:14:56.145939 8=FIX.4.0|9=46|35=0|34=31|49=TW|52=20180730-11:14:56|56=ISLD|10=021|
2018/07/30 11:14:56.174879 8=FIX.4.0|9=46|35=0|34=31|49=ISLD|52=20180730-11:14:56|56=TW|10=021|
2018/07/30 11:15:26.147340 8=FIX.4.0|9=46|35=0|34=32|49=TW|52=20180730-11:15:26|56=ISLD|10=020|
2018/07/30 11:15:26.181630 8=FIX.4.0|9=46|35=0|34=32|49=ISLD|52=20180730-11:15:26|56=TW|10=020|
2018/07/30 11:15:56.151331 8=FIX.4.0|9=46|35=0|34=33|49=TW|52=20180730-11:15:56|56=ISLD|10=024|
2018/07/30 11:15:56.182899 8=FIX.4.0|9=46|35=0|34=33|49=ISLD|52=20180730-11:15:56|56=TW|10=024|
2018/07/30 11:16:26.157560 8=FIX.4.0|9=46|35=0|34=34|49=TW|52=20180730-11:16:26|56=ISLD|10=023|
2018/07/30 11:16:26.184062 8=FIX.4.0|9=46|35=0|34=34|49=ISLD|52=20180730-11:16:26|56=TW|10=023|
2018/07/30 11:16:56.161411 8=FIX.4.0|9=46|35=0|34=35|49=TW|52=20180730-11:16:56|56=ISLD|10=027|
2018/07/30 11:16:56.186607 8=FIX.4.0|9=46|35=0|34=35|49=ISLD|52=20180730-11:16:56|56=TW|10=027|
2018/07/30 11:17:26.162746 8=FIX.4.0|9=46|35=0|34=36|49=TW|52=20180730-11:17:26|56=ISLD|10=026|
2018/07/30 11:17:26.192162 8=FIX.4.0|9=46|35=0|34=36|49=ISLD|52=20180730-11:17:26|56=TW|10=026|
2018/07/30 11:17:56.164123 8=FIX.4.0|9=46|35=0|34=37|49=TW|52=20180730-11:17:56|56=ISLD|10=030|
2018/07/30 11:17:56.200815 8=FIX.4.0|9=46|35=0|34=37|49=ISLD|52=20180730-11:17:56|56=TW|10=030|
2018/07/30 11:18:26.166617 8=FIX.4.0|9=46|35=0|34=38|49=TW|52=20180730-11:18:26|56=ISLD|10=029|
2018/07/30 11:18:26.199865 8=FIX.4.0|9=46|35=0|34=38|49=ISLD|52=20180730-11:18:26|56=TW|10=029|
2018/07/30 11:18:56.173232 8=FIX.4.0|9=46|35=0|34=39|49=TW|52=20180730-11:18:56|56=ISLD|10=033|
2018/07/30 11:18:56.200936 8=FIX.4.0|9=46|35=0|34=39|49=ISLD|52=20180730-11:18:56|56=TW|10=033|
2018/07/30 11:19:26.179229 8=FIX.4.0|9=46|35=0|34=40|49=TW|52=20180730-11:19:26|56=ISLD|10=023|
2018/07/30 11:19:26.202020 8=FIX.4.0|9=46|35=0|34=40|49=ISLD|52=20180730-11:19:26|56=TW|10=023|
2018/07/30 11:19:56.180482 8=FIX.4.0|9=46|35=0|34=41|49=TW|52=20180730-11:19:56|56=ISLD|10=027|
2018/07/30 11:19:56.203323 8=FIX.4.0|9=46|35=0|34=41|49=ISLD|52=20180730-11:19:56|56=TW|10=027|
2018/07/30 11:20:26.181863 8=FIX.4.0|9=46|35=0|34=42|49=TW|52=20180730-11:20:26|56=ISLD|10=017|
2018/07/30 11:20:26.206535 8=FIX.4.0|9=46|35=0|34=42|49=ISLD|52=20180730-11:20:26|56=TW|10=017|
2018/07/30 11:20:56.183177 8=FIX.4.0|9=46|35=0|34=43|49=TW|52=20180730-11:20:56|56=ISLD|10=021|
2018/07/30 11:20:56.212774 8=FIX.4.0|9=46|35=0|34=43|49=ISLD|52=20180730-11:20:56|56=TW|10=021|
2018/07/30 11:21:17.042528 8=FIX.4.0|9=46|35=5|34=44|49=ISLD|52=20180730-11:21:17|56=TW|10=025|
2018/07/30 11:21:17.044306 8=FIX.4.0|9=46|35=5|34=44|49=TW|52=20180730-11:21:17|56=ISLD|10=025|
