2018/07/30 10:59:56.041703 8=FIX.4.4|9=61|35=A|34=1|49=TW|52=20180730-10:59:56.041|56=ISLD|98=0|108=30|10=216|
2018/07/30 10:59:56.043102 8=FIX.4.4|9=61|35=A|34=1|49=ISLD|52=20180730-10:59:56.042|56=TW|98=0|108=30|10=217|
2018/07/30 11:00:26.046337 8=FIX.4.4|9=49|35=0|34=2|49=TW|52=20180730-11:00:26.046|56=ISLD|10=170|
2018/07/30 11:00:26.047066 8=FIX.4.4|9=49|35=0|34=2|49=ISLD|52=20180730-11:00:26.046|56=TW|10=170|
2018/07/30 11:00:56.048883 8=FIX.4.4|9=49|35=0|34=3|49=TW|52=20180730-11:00:56.048|56=ISLD|10=176|
2018/07/30 11:00:56.049659 8=FIX.4.4|9=49|35=0|34=3|49=ISLD|52=20180730-11:00:56.049|56=TW|10=177|
2018/07/30 11:01:26.050391 8=FIX.4.4|9=49|35=0|34=4|49=TW|52=20180730-11:01:26.050|56=ISLD|10=168|
2018/07/30 11:01:26.055061 8=FIX.4.4|9=49|35=0|34=4|49=ISLD|52=20180730-11:01:26.054|56=TW|10=172|
2018/07/30 11:01:56.052339 8=FIX.4.4|9=49|35=0|34=5|49=TW|52=20180730-11:01:56.052|56=ISLD|10=174|
2018/07/30 11:01:56.060726 8=FIX.4.4|9=49|35=0|34=5|49=ISLD|52=20180730-11:01:56.060|56=TW|10=173|
2018/07/30 11:02:26.054317 8=FIX.4.4|9=49|35=0|34=6|49=TW|52=20180730-11:02:26.054|56=ISLD|10=175|
2018/07/30 11:02:26.066432 8=FIX.4.4|9=49|35=0|34=6|49=ISLD|52=20180730-11:02:26.065|56=TW|10=177|
2018/07/30 11:02:56.059107 8=FIX.4.4|9=49|35=0|34=7|49=TW|52=20180730-11:02:56.059|56=ISLD|10=184|
2018/07/30 11:02:56.071460 8=FIX.4.4|9=49|35=0|34=7|49=ISLD|52=20180730-11:02:56.070|56=TW|10=177|
2018/07/30 11:03:26.060950 8=FIX.4.4|9=49|35=0|34=8|49=TW|52=20180730-11:03:26.060|56=ISLD|10=175|
2018/07/30 11:03:26.072599 8=FIX.4.4|9=49|35=0|34=8|49=ISLD|52=20180730-11:03:26.072|56=TW|10=178|
2018/07/30 11:03:56.062792 8=FIX.4.4|9=49|35=0|34=9|49=TW|52=20180730-11:03:56.062|56=ISLD|10=181|
2018/07/30 11:03:56.081008 8=FIX.4.4|9=49|35=0|34=9|49=ISLD|52=20180730-11:03:56.079|56=TW|10=189|
2018/07/30 11:04:26.067399 8=FIX.4.4|9=50|35=0|34=10|49=TW|52=20180730-11:04:26.067|56=ISLD|10=216|
2018/07/30 11:04:26.084398 8=FIX.4.4|9=50|35=0|34=10|49=ISLD|52=20180730-11:04:26.084|56=TW|10=215|
2018/07/30 11:04:56.068654 8=FIX.4.4|9=50|35=0|34=11|49=TW|52=20180730-11:04:56.068|56=ISLD|10=221|
2018/07/30 11:04:56.087275 8=FIX.4.4|9=50|35=0|34=11|49=ISLD|52=20180730-11:04:56.086|56=TW|10=221|
2018/07/30 11:05:26.069873 8=FIX.4.4|9=50|35=0|34=12|49=TW|52=20180730-11:05:26.069|56=ISLD|10=221|
2018/07/30 11:05:26.088418 8=FIX.4.4|9=50|35=0|34=12|49=ISLD|52=20180730-11:05:26.087|56=TW|10=221|
2018/07/30 11:05:56.072724 8=FIX.4.4|9=50|35=0|34=13|49=TW|52=20180730-11:05:56.072|56=ISLD|10=219|
2018/07/30 11:05:56.089398 8=FIX.4.4|9=50|35=0|34=13|49=ISLD|52=20180730-11:05:56.089|56=TW|10=227|
2018/07/30 11:06:26.078721 8=FIX.4.4|9=50|35=0|34=14|49=TW|52=20180730-11:06:26.078|56=ISLD|10=224|
2018/07/30 11:06:26.092513 8=FIX.4.4|9=50|35=0|34=14|49=ISLD|52=20180730-11:06:26.092|56=TW|10=220|
2018/07/30 11:06:56.082806 8=FIX.4.4|9=50|35=0|34=15|49=TW|52=20180730-11:06:56.082|56=ISLD|10=223|
2018/07/30 11:06:56.101579 8=FIX.4.4|9=50|35=0|34=15|49=ISLD|52=20180730-11:06:56.101|56=TW|10=215|
2018/07/30 11:07:26.094455 8=FIX.4.4|9=50|35=0|34=16|49=TW|52=20180730-11:07:26.094|56=ISLD|10=225|
2018/07/30 11:07:26.116471 8=FIX.4.4|9=50|35=0|34=16|49=ISLD|52=20180730-11:07:26.116|56=TW|10=220|
2018/07/30 11:07:56.100257 8=FIX.4.4|9=50|35=0|34=17|49=TW|52=20180730-11:07:56.100|56=ISLD|10=217|
2018/07/30 11:07:56.123693 8=FIX.4.4|9=50|35=0|34=17|49=ISLD|52=20180730-11:07:56.123|56=TW|10=222|
2018/07/30 11:08:26.101823 8=FIX.4.4|9=50|35=0|34=18|49=TW|52=20180730-11:08:26.101|56=ISLD|10=217|
2018/07/30 11:08:26.127171 8=FIX.4.4|9=50|35=0|34=18|49=ISLD|52=20180730-11:08:26.126|56=TW|10=224|
2018/07/30 11:08:56.107434 8=FIX.4.4|9=50|35=0|34=19|49=TW|52=20180730-11:08:56.107|56=ISLD|10=227|
2018/07/30 11:08:56.132746 8=FIX.4.4|9=50|35=0|34=19|49=ISLD|52=20180730-11:08:56.132|56=TW|10=225|
2018/07/30 11:09:26.110601 8=FIX.4.4|9=50|35=0|34=20|49=TW|52=20180730-11:09:26.110|56=ISLD|10=211|
2018/07/30 11:09:26.138572 8=FIX.4.4|9=50|35=0|34=20|49=ISLD|52=20180730-11:09:26.138|56=TW|10=221|
2018/07/30 11:09:56.116140 8=FIX.4.4|9=50|35=0|34=21|49=TW|52=20180730-11:09:56.116|56=ISLD|10=221|
2018/07/30 11:09:56.144753 8=FIX.4.4|9=50|35=0|34=21|49=ISLD|52=20180730-11:09:56.144|56=TW|10=222|
2018/07/30 11:10:26.117562 8=FIX.4.4|9=50|35=0|34=22|49=TW|52=20180730-11:10:26.117|56=ISLD|10=212|
2018/07/30 11:10:26.148111 8=FIX.4.4|9=50|35=0|34=22|49=ISLD|52=20180730-11:10:26.147|56=TW|10=215|
2018/07/30 11:10:56.121405 8=FIX.4.4|9=50|35=0|34=23|49=TW|52=20180730-11:10:56.121|56=ISLD|10=211|
2018/07/30 11:10:56.150976 8=FIX.4.4|9=50|35=0|34=23|49=ISLD|52=20180730-11:10:56.149|56=TW|10=221|
2018/07/30 11:11:26.126165 8=FIX.4.4|9=50|35=0|34=24|49=TW|52=20180730-11:11:26.126|56=ISLD|10=215|
2018/07/30 11:11:26.157146 8=FIX.4.4|9=50|35=0|34=24|49=ISLD|52=20180730-11:11:26.156|56=TW|10=218|
2018/07/30 11:11:56.127627 8=FIX.4.4|9=50|35=0|34=25|49=TW|52=20180730-11:11:56.127|56=ISLD|10=220|
2018/07/30 11:11:56.163005 8=FIX.4.4|9=50|35=0|34=25|49=ISLD|52=20180730-11:11:56.162|56=TW|10=219|
2018/07/30 11:12:26.132768 8=FIX.4.4|9=50|35=0|34=26|49=TW|52=20180730-11:12:26.132|56=ISLD|10=215|
2018/07/30 11:12:26.164125 8=FIX.4.4|9=50|35=0|34=26|49=ISLD|52=20180730-11:12:26.163|56=TW|10=219|
2018/07/30 11:12:56.135034 8=FIX.4.4|9=50|35=0|34=27|49=TW|52=20180730-11:12:56.134|56=ISLD|10=221|
2018/07/30 11:12:56.165261 8=FIX.4.4|9=50|35=0|34=27|49=ISLD|52=20180730-11:12:56.165|56=TW|10=225|
2018/07/30 11:13:26.136525 8=FIX.4.4|9=50|35=0|34=28|49=TW|52=20180730-11:13:26.136|56=ISLD|10=222|
2018/07/30 11:13:26.166298 8=FIX.4.4|9=50|35=0|34=28|49=ISLD|52=20180730-11:13:26.166|56=TW|10=225|
2018/07/30 11:13:56.139415 8=FIX.4.4|9=50|35=0|34=29|49=TW|52=20180730-11:13:56.139|56=ISLD|10=229|
2018/07/30 11:13:56.167430 8=FIX.4.4|9=50|35=0|34=29|49=ISLD|52=20180730-11:13:56.167|56=TW|10=230|
2018/07/30 11:14:26.144244 8=FIX.4.4|9=50|35=0|34=30|49=TW|52=20180730-11:14:26.144|56=ISLD|10=215|
2018/07/30 11:14:26.169769 8=FIX.4.4|9=50|35=0|34=30|49=ISLD|52=20180730-11:14:26.169|56=TW|10=222|
2018/07/30 11:14:56.145775 8=FIX.4.4|9=50|35=0|34=31|49=TW|52=20180730-11:14:56.145|56=ISLD|10=220|
2018/07/30 11:14:56.174827 8=FIX.4.4|9=50|35=0|34=31|49=ISLD|52=20180730-11:14:56.174|56=TW|10=222|
2018/07/30 11:15:26.146867 8=FIX.4.4|9=50|35=0|34=32|49=TW|52=20180730-11:15:26.146|56=ISLD|10=220|
2018/07/30 11:15:26.181753 8=FIX.4.4|9=50|35=0|34=32|49=ISLD|52=20180730-11:15:26.181|56=TW|10=219|
2018/07/30 11:15:56.151254 8=FIX.4.4|9=50|35=0|34=33|49=TW|52=20180730-11:15:56.151|56=ISLD|10=220|
2018/07/30 11:15:56.183369 8=FIX.4.4|9=50|35=0|34=33|49=ISLD|52=20180730-11:15:56.183|56=TW|10=225|
2018/07/30 11:16:26.157734 8=FIX.4.4|9=50|35=0|34=34|49=TW|52=20180730-11:16:26.157|56=ISLD|10=225|
2018/07/30 11:16:26.189096 8=FIX.4.4|9=50|35=0|34=34|49=ISLD|52=20180730-11:16:26.188|56=TW|10=229|
2018/07/30 11:16:56.161848 8=FIX.4.4|9=50|35=0|34=35|49=TW|52=20180730-11:16:56.161|56=ISLD|10=224|
2018/07/30 11:16:56.190705 8=FIX.4.4|9=50|35=0|34=35|49=ISLD|52=20180730-11:16:56.190|56=TW|10=226|
2018/07/30 11:17:26.163206 8=FIX.4.4|9=50|35=0|34=36|49=TW|52=20180730-11:17:26.163|56=ISLD|10=225|
2018/07/30 11:17:26.195661 8=FIX.4.4|9=50|35=0|34=36|49=ISLD|52=20180730-11:17:26.195|56=TW|10=230|
2018/07/30 11:17:56.164589 8=FIX.4.4|9=50|35=0|34=37|49=TW|52=20180730-11:17:56.164|56=ISLD|10=230|
2018/07/30 11:17:56.200477 8=FIX.4.4|9=50|35=0|34=37|49=ISLD|52=20180730-11:17:56.198|56=TW|10=237|
2018/07/30 11:18:26.166637 8=FIX.4.4|9=50|35=0|34=38|49=TW|52=20180730-11:18:26.166|56=ISLD|10=231|
2018/07/30 11:18:26.200980 8=FIX.4.4|9=50|35=0|34=38|49=ISLD|52=20180730-11:18:26.200|56=TW|10=220|
2018/07/30 11:18:56.173036 8=FIX.4.4|9=50|35=0|34=39|49=TW|52=20180730-11:18:56.173|56=ISLD|10=233|
2018/07/30 11:18:56.202478 8=FIX.4.4|9=50|35=0|34=39|49=ISLD|52=20180730-11:18:56.202|56=TW|10=226|
2018/07/30 11:19:26.178535 8=FIX.4.4|9=50|35=0|34=40|49=TW|52=20180730-11:19:26.178|56=ISLD|10=228|
2018/07/30 11:19:26.203548 8=FIX.4.4|9=50|35=0|34=40|49=ISLD|52=20180730-11:19:26.203|56=TW|10=217|
2018/07/30 11:19:56.179633 8=FIX.4.4|9=50|35=0|34=41|49=TW|52=20180730-11:19:56.179|56=ISLD|10=233|
2018/07/30 11:19:56.205192 8=FIX.4.4|9=50|35=0|34=41|49=ISLD|52=20180730-11:19:56.204|56=TW|10=222|
2018/07/30 11:20:26.180847 8=FIX.4.4|9=50|35=0|34=42|49=TW|52=20180730-11:20:26.180|56=ISLD|10=215|
2018/07/30 11:20:26.206394 8=FIX.4.4|9=50|35=0|34=42|49=ISLD|52=20180730-11:20:26.205|56=TW|10=213|
2018/07/30 11:20:56.182051 8=FIX.4.4|9=50|35=0|34=43|49=TW|52=20180730-11:20:56.182|56=ISLD|10=221|
2018/07/30 11:20:56.212528 8=FIX.4.4|9=50|35=0|34=43|49=ISLD|52=20180730-11:20:56.212|56=TW|10=215|
2018/07/30 11:21:17.042969 8=FIX.4.4|9=50|35=5|34=44|49=ISLD|52=20180730-11:21:17.041|56=TW|10=219|
2018/07/30 11:21:17.044624 8=FIX.4.4|9=50|35=5|34=44|49=TW|52=20180730-11:21:17.044|56=ISLD|10=222|
