2018/07/30 10:59:56.041108 8=FIX.4.1|9=57|35=A|34=1|49=TW|52=20180730-10:59:56|56=ISLD|98=0|108=30|10=023|
2018/07/30 10:59:56.042121 8=FIX.4.1|9=57|35=A|34=1|49=ISLD|52=20180730-10:59:56|56=TW|98=0|108=30|10=023|
2018/07/30 11:00:26.046339 8=FIX.4.1|9=45|35=0|34=2|49=TW|52=20180730-11:00:26|56=ISLD|10=219|
2018/07/30 11:00:26.046828 8=FIX.4.1|9=45|35=0|34=2|49=ISLD|52=20180730-11:00:26|56=TW|10=219|
2018/07/30 11:00:56.048700 8=FIX.4.1|9=45|35=0|34=3|49=TW|52=20180730-11:00:56|56=ISLD|10=223|
2018/07/30 11:00:56.049665 8=FIX.4.1|9=45|35=0|34=3|49=ISLD|52=20180730-11:00:56|56=TW|10=223|
2018/07/30 11:01:26.054550 8=FIX.4.1|9=45|35=0|34=4|49=TW|52=20180730-11:01:26|56=ISLD|10=222|
2018/07/30 11:01:26.054998 8=FIX.4.1|9=45|35=0|34=4|49=ISLD|52=20180730-11:01:26|56=TW|10=222|
2018/07/30 11:01:56.055984 8=FIX.4.1|9=45|35=0|34=5|49=TW|52=20180730-11:01:56|56=ISLD|10=226|
2018/07/30 11:01:56.060559 8=FIX.4.1|9=45|35=0|34=5|49=ISLD|52=20180730-11:01:56|56=TW|10=226|
2018/07/30 11:02:26.057831 8=FIX.4.1|9=45|35=0|34=6|49=TW|52=20180730-11:02:26|56=ISLD|10=225|
2018/07/30 11:02:26.066329 8=FIX.4.1|9=45|35=0|34=6|49=ISLD|52=20180730-11:02:26|56=TW|10=225|
2018/07/30 11:02:56.059122 8=FIX.4.1|9=45|35=0|34=7|49=TW|52=20180730-11:02:56|56=ISLD|10=229|
2018/07/30 11:02:56.071429 8=FIX.4.1|9=45|35=0|34=7|49=ISLD|52=20180730-11:02:56|56=TW|10=229|
2018/07/30 11:03:26.061120 8=FIX.4.1|9=45|35=0|34=8|49=TW|52=20180730-11:03:26|56=ISLD|10=228|
2018/07/30 11:03:26.072712 8=FIX.4.1|9=45|35=0|34=8|49=ISLD|52=20180730-11:03:26|56=TW|10=228|
2018/07/30 11:03:56.063100 8=FIX.4.1|9=45|35=0|34=9|49=TW|52=20180730-11:03:56|56=ISLD|10=232|
2018/07/30 11:03:56.078609 8=FIX.4.1|9=45|35=0|34=9|49=ISLD|52=20180730-11:03:56|56=TW|10=232|
2018/07/30 11:04:26.067411 8=FIX.4.1|9=46|35=0|34=10|49=TW|52=20180730-11:04:26|56=ISLD|10=015|
2018/07/30 11:04:26.084517 8=FIX.4.1|9=46|35=0|34=10|49=ISLD|52=20180730-11:04:26|56=TW|10=015|
2018/07/30 11:04:56.071649 8=FIX.4.1|9=46|35=0|34=11|49=TW|52=20180730-11:04:56|56=ISLD|10=019|
2018/07/30 11:04:56.087221 8=FIX.4.1|9=46|35=0|34=11|49=ISLD|52=20180730-11:04:56|56=TW|10=019|
2018/07/30 11:05:26.073510 8=FIX.4.1|9=46|35=0|34=12|49=TW|52=20180730-11:05:26|56=ISLD|10=018|
2018/07/30 11:05:26.088500 8=FIX.4.1|9=46|35=0|34=12|49=ISLD|52=20180730-11:05:26|56=TW|10=018|
2018/07/30 11:05:56.077475 8=FIX.4.1|9=46|35=0|34=13|49=TW|52=20180730-11:05:56|56=ISLD|10=022|
2018/07/30 11:05:56.089538 8=FIX.4.1|9=46|35=0|34=13|49=ISLD|52=20180730-11:05:56|56=TW|10=022|
2018/07/30 11:06:26.078770 8=FIX.4.1|9=46|35=0|34=14|49=TW|52=20180730-11:06:26|56=ISLD|10=021|
2018/07/30 11:06:26.092574 8=FIX.4.1|9=46|35=0|34=14|49=ISLD|52=20180730-11:06:26|56=TW|10=021|
2018/07/30 11:06:56.082978 8=FIX.4.1|9=46|35=0|34=15|49=TW|52=20180730-11:06:56|56=ISLD|10=025|
2018/07/30 11:06:56.101626 8=FIX.4.1|9=46|35=0|34=15|49=ISLD|52=20180730-11:06:56|56=TW|10=025|
2018/07/30 11:07:26.094277 8=FIX.4.1|9=46|35=0|34=16|49=TW|52=20180730-11:07:26|56=ISLD|10=024|
2018/07/30 11:07:26.116539 8=FIX.4.1|9=46|35=0|34=16|49=ISLD|52=20180730-11:07:26|56=TW|10=024|
2018/07/30 11:07:56.100263 8=FIX.4.1|9=46|35=0|34=17|49=TW|52=20180730-11:07:56|56=ISLD|10=028|
2018/07/30 11:07:56.123822 8=FIX.4.1|9=46|35=0|34=17|49=ISLD|52=20180730-11:07:56|56=TW|10=028|
2018/07/30 11:08:26.101806 8=FIX.4.1|9=46|35=0|34=18|49=TW|52=20180730-11:08:26|56=ISLD|10=027|
2018/07/30 11:08:26.127196 8=FIX.4.1|9=46|35=0|34=18|49=ISLD|52=20180730-11:08:26|56=TW|10=027|
2018/07/30 11:08:56.107504 8=FIX.4.1|9=46|35=0|34=19|49=TW|52=20180730-11:08:56|56=ISLD|10=031|
2018/07/30 11:08:56.132845 8=FIX.4.1|9=46|35=0|34=19|49=ISLD|52=20180730-11:08:56|56=TW|10=031|
2018/07/30 11:09:26.110608 8=FIX.4.1|9=46|35=0|34=20|49=TW|52=20180730-11:09:26|56=ISLD|10=021|
2018/07/30 11:09:26.138506 8=FIX.4.1|9=46|35=0|34=20|49=ISLD|52=20180730-11:09:26|56=TW|10=021|
2018/07/30 11:09:56.115947 8=FIX.4.1|9=46|35=0|34=21|49=TW|52=20180730-11:09:56|56=ISLD|10=025|
2018/07/30 11:09:56.144724 8=FIX.4.1|9=46|35=0|34=21|49=ISLD|52=20180730-11:09:56|56=TW|10=025|
2018/07/30 11:10:26.117407 8=FIX.4.1|9=46|35=0|34=22|49=TW|52=20180730-11:10:26|56=ISLD|10=015|
2018/07/30 11:10:26.148080 8=FIX.4.1|9=46|35=0|34=22|49=ISLD|52=20180730-11:10:26|56=TW|10=015|
2018/07/30 11:10:56.121526 8=FIX.4.1|9=46|35=0|34=23|49=TW|52=20180730-11:10:56|56=ISLD|10=019|
2018/07/30 11:10:56.150611 8=FIX.4.1|9=46|35=0|34=23|49=ISLD|52=20180730-11:10:56|56=TW|10=019|
2018/07/30 11:11:26.126288 8=FIX.4.1|9=46|35=0|34=24|49=TW|52=20180730-11:11:26|56=ISLD|10=018|
2018/07/30 11:11:26.156976 8=FIX.4.1|9=46|35=0|34=24|49=ISLD|52=20180730-11:11:26|56=TW|10=018|
2018/07/30 11:11:56.127665 8=FIX.4.1|9=46|35=0|34=25|49=TW|52=20180730-11:11:56|56=ISLD|10=022|
2018/07/30 11:11:56.162694 8=FIX.4.1|9=46|35=0|34=25|49=ISLD|52=20180730-11:11:56|56=TW|10=022|
2018/07/30 11:12:26.132582 8=FIX.4.1|9=46|35=0|34=26|49=TW|52=20180730-11:12:26|56=ISLD|10=021|
2018/07/30 11:12:26.163883 8=FIX.4.1|9=46|35=0|34=26|49=ISLD|52=20180730-11:12:26|56=TW|10=021|
2018/07/30 11:12:56.134119 8=FIX.4.1|9=46|35=0|34=27|49=TW|52=20180730-11:12:56|56=ISLD|10=025|
2018/07/30 11:12:56.164943 8=FIX.4.1|9=46|35=0|34=27|49=ISLD|52=20180730-11:12:56|56=TW|10=025|
2018/07/30 11:13:26.136525 8=FIX.4.1|9=46|35=0|34=28|49=TW|52=20180730-11:13:26|56=ISLD|10=024|
2018/07/30 11:13:26.170950 8=FIX.4.1|9=46|35=0|34=28|49=ISLD|52=20180730-11:13:26|56=TW|10=024|
2018/07/30 11:13:56.139550 8=FIX.4.1|9=46|35=0|34=29|49=TW|52=20180730-11:13:56|56=ISLD|10=028|
2018/07/30 11:13:56.172157 8=FIX.4.1|9=46|35=0|34=29|49=ISLD|52=20180730-11:13:56|56=TW|10=028|
2018/07/30 11:14:26.144572 8=FIX.4.1|9=46|35=0|34=30|49=TW|52=20180730-11:14:26|56=ISLD|10=018|
2018/07/30 11:14:26.174313 8=FIX.4.1|9=46|35=0|34=30|49=ISLD|52=20180730-11:14:26|56=TW|10=018|
2018/07/30 11:14:56.146095 8=FIX.4.1|9=46|35=0|34=31|49=TW|52=20180730-11:14:56|56=ISLD|10=022|
2018/07/30 11:14:56.180397 8=FIX.4.1|9=46|35=0|34=31|49=ISLD|52=20180730-11:14:56|56=TW|10=022|
2018/07/30 11:15:26.147095 8=FIX.4.1|9=46|35=0|34=32|49=TW|52=20180730-11:15:26|56=ISLD|10=021|
2018/07/30 11:15:26.181741 8=FIX.4.1|9=46|35=0|34=32|49=ISLD|52=20180730-11:15:26|56=TW|10=021|
2018/07/30 11:15:56.151391 8=FIX.4.1|9=46|35=0|34=33|49=TW|52=20180730-11:15:56|56=ISLD|10=025|
2018/07/30 11:15:56.183288 8=FIX.4.1|9=46|35=0|34=33|49=ISLD|52=20180730-11:15:56|56=TW|10=025|
2018/07/30 11:16:26.157562 8=FIX.4.1|9=46|35=0|34=34|49=TW|52=20180730-11:16:26|56=ISLD|10=024|
2018/07/30 11:16:26.189134 8=FIX.4.1|9=46|35=0|34=34|49=ISLD|52=20180730-11:16:26|56=TW|10=024|
2018/07/30 11:16:56.161419 8=FIX.4.1|9=46|35=0|34=35|49=TW|52=20180730-11:16:56|56=ISLD|10=028|
2018/07/30 11:16:56.190853 8=FIX.4.1|9=46|35=0|34=35|49=ISLD|52=20180730-11:16:56|56=TW|10=028|
2018/07/30 11:17:26.162856 8=FIX.4.1|9=46|35=0|34=36|49=TW|52=20180730-11:17:26|56=ISLD|10=027|
2018/07/30 11:17:26.191951 8=FIX.4.1|9=46|35=0|34=36|49=ISLD|52=20180730-11:17:26|56=TW|10=027|
2018/07/30 11:17:56.164345 8=FIX.4.1|9=46|35=0|34=37|49=TW|52=20180730-11:17:56|56=ISLD|10=031|
2018/07/30 11:17:56.200612 8=FIX.4.1|9=46|35=0|34=37|49=ISLD|52=20180730-11:17:56|56=TW|10=031|
2018/07/30 11:18:26.166946 8=FIX.4.1|9=46|35=0|34=38|49=TW|52=20180730-11:18:26|56=ISLD|10=030|
2018/07/30 11:18:26.200775 8=FIX.4.1|9=46|35=0|34=38|49=ISLD|52=20180730-11:18:26|56=TW|10=030|
2018/07/30 11:18:56.173020 8=FIX.4.1|9=46|35=0|34=39|49=TW|52=20180730-11:18:56|56=ISLD|10=034|
2018/07/30 11:18:56.202452 8=FIX.4.1|9=46|35=0|34=39|49=ISLD|52=20180730-11:18:56|56=TW|10=034|
2018/07/30 11:19:26.178824 8=FIX.4.1|9=46|35=0|34=40|49=TW|52=20180730-11:19:26|56=ISLD|10=024|
2018/07/30 11:19:26.203586 8=FIX.4.1|9=46|35=0|34=40|49=ISLD|52=20180730-11:19:26|56=TW|10=024|
2018/07/30 11:19:56.180065 8=FIX.4.1|9=46|35=0|34=41|49=TW|52=20180730-11:19:56|56=ISLD|10=028|
2018/07/30 11:19:56.205147 8=FIX.4.1|9=46|35=0|34=41|49=ISLD|52=20180730-11:19:56|56=TW|10=028|
2018/07/30 11:20:26.181309 8=FIX.4.1|9=46|35=0|34=42|49=TW|52=20180730-11:20:26|56=ISLD|10=018|
2018/07/30 11:20:26.206434 8=FIX.4.1|9=46|35=0|34=42|49=ISLD|52=20180730-11:20:26|56=TW|10=018|
2018/07/30 11:20:56.182461 8=FIX.4.1|9=46|35=0|34=43|49=TW|52=20180730-11:20:56|56=ISLD|10=022|
2018/07/30 11:20:56.212522 8=FIX.4.1|9=46|35=0|34=43|49=ISLD|52=20180730-11:20:56|56=TW|10=022|
2018/07/30 11:21:17.042474 8=FIX.4.1|9=46|35=5|34=44|49=ISLD|52=20180730-11:21:17|56=TW|10=026|
2018/07/30 11:21:17.042811 8=FIX.4.1|9=46|35=5|34=44|49=TW|52=20180730-11:21:17|56=ISLD|10=026|
