2018/07/30 10:59:56.041581 8=FIXT.1.1|9=68|35=A|34=1|49=TW|52=20180730-10:59:56.041|56=ISLD|98=0|108=30|1137=7|10=110|
2018/07/30 10:59:56.042551 8=FIXT.1.1|9=68|35=A|34=1|49=ISLD|52=20180730-10:59:56.042|56=TW|98=0|108=30|1137=7|10=111|
2018/07/30 11:00:26.046528 8=FIXT.1.1|9=49|35=0|34=2|49=TW|52=20180730-11:00:26.046|56=ISLD|10=248|
2018/07/30 11:00:26.046945 8=FIXT.1.1|9=49|35=0|34=2|49=ISLD|52=20180730-11:00:26.046|56=TW|10=248|
2018/07/30 11:00:56.048642 8=FIXT.1.1|9=49|35=0|34=3|49=TW|52=20180730-11:00:56.048|56=ISLD|10=254|
2018/07/30 11:00:56.049803 8=FIXT.1.1|9=49|35=0|34=3|49=ISLD|52=20180730-11:00:56.049|56=TW|10=255|
2018/07/30 11:01:26.050195 8=FIXT.1.1|9=49|35=0|34=4|49=TW|52=20180730-11:01:26.050|56=ISLD|10=246|
2018/07/30 11:01:26.054924 8=FIXT.1.1|9=49|35=0|34=4|49=ISLD|52=20180730-11:01:26.054|56=TW|10=250|
2018/07/30 11:01:56.054327 8=FIXT.1.1|9=49|35=0|34=5|49=TW|52=20180730-11:01:56.054|56=ISLD|10=254|
2018/07/30 11:01:56.060585 8=FIXT.1.1|9=49|35=0|34=5|49=ISLD|52=20180730-11:01:56.060|56=TW|10=251|
2018/07/30 11:02:26.055774 8=FIXT.1.1|9=49|35=0|34=6|49=TW|52=20180730-11:02:26.055|56=ISLD|10=254|
2018/07/30 11:02:26.066398 8=FIXT.1.1|9=49|35=0|34=6|49=ISLD|52=20180730-11:02:26.066|56=TW|10=000|
2018/07/30 11:02:56.057737 8=FIXT.1.1|9=49|35=0|34=7|49=TW|52=20180730-11:02:56.057|56=ISLD|10=004|
2018/07/30 11:02:56.071364 8=FIXT.1.1|9=49|35=0|34=7|49=ISLD|52=20180730-11:02:56.070|56=TW|10=255|
2018/07/30 11:03:26.060652 8=FIXT.1.1|9=49|35=0|34=8|49=TW|52=20180730-11:03:26.060|56=ISLD|10=253|
2018/07/30 11:03:26.072707 8=FIXT.1.1|9=49|35=0|34=8|49=ISLD|52=20180730-11:03:26.072|56=TW|10=000|
2018/07/30 11:03:56.063356 8=FIXT.1.1|9=49|35=0|34=9|49=TW|52=20180730-11:03:56.063|56=ISLD|10=004|
2018/07/30 11:03:56.079136 8=FIXT.1.1|9=49|35=0|34=9|49=ISLD|52=20180730-11:03:56.078|56=TW|10=010|
2018/07/30 11:04:26.067772 8=FIXT.1.1|9=50|35=0|34=10|49=TW|52=20180730-11:04:26.067|56=ISLD|10=038|
2018/07/30 11:04:26.084562 8=FIXT.1.1|9=50|35=0|34=10|49=ISLD|52=20180730-11:04:26.084|56=TW|10=037|
2018/07/30 11:04:56.071741 8=FIXT.1.1|9=50|35=0|34=11|49=TW|52=20180730-11:04:56.071|56=ISLD|10=037|
2018/07/30 11:04:56.087277 8=FIXT.1.1|9=50|35=0|34=11|49=ISLD|52=20180730-11:04:56.086|56=TW|10=043|
2018/07/30 11:05:26.073514 8=FIXT.1.1|9=50|35=0|34=12|49=TW|52=20180730-11:05:26.073|56=ISLD|10=038|
2018/07/30 11:05:26.088365 8=FIXT.1.1|9=50|35=0|34=12|49=ISLD|52=20180730-11:05:26.088|56=TW|10=044|
2018/07/30 11:05:56.075442 8=FIXT.1.1|9=50|35=0|34=13|49=TW|52=20180730-11:05:56.075|56=ISLD|10=044|
2018/07/30 11:05:56.089618 8=FIXT.1.1|9=50|35=0|34=13|49=ISLD|52=20180730-11:05:56.089|56=TW|10=049|
2018/07/30 11:06:26.078660 8=FIXT.1.1|9=50|35=0|34=14|49=TW|52=20180730-11:06:26.078|56=ISLD|10=046|
2018/07/30 11:06:26.092361 8=FIXT.1.1|9=50|35=0|34=14|49=ISLD|52=20180730-11:06:26.092|56=TW|10=042|
2018/07/30 11:06:56.082709 8=FIXT.1.1|9=50|35=0|34=15|49=TW|52=20180730-11:06:56.082|56=ISLD|10=045|
2018/07/30 11:06:56.101629 8=FIXT.1.1|9=50|35=0|34=15|49=ISLD|52=20180730-11:06:56.101|56=TW|10=037|
2018/07/30 11:07:26.094470 8=FIXT.1.1|9=50|35=0|34=16|49=TW|52=20180730-11:07:26.094|56=ISLD|10=047|
2018/07/30 11:07:26.116630 8=FIXT.1.1|9=50|35=0|34=16|49=ISLD|52=20180730-11:07:26.116|56=TW|10=042|
2018/07/30 11:07:56.101515 8=FIXT.1.1|9=50|35=0|34=17|49=TW|52=20180730-11:07:56.101|56=ISLD|10=040|
2018/07/30 11:07:56.123735 8=FIXT.1.1|9=50|35=0|34=17|49=ISLD|52=20180730-11:07:56.123|56=TW|10=044|
2018/07/30 11:08:26.103672 8=FIXT.1.1|9=50|35=0|34=18|49=TW|52=20180730-11:08:26.103|56=ISLD|10=041|
2018/07/30 11:08:26.127318 8=FIXT.1.1|9=50|35=0|34=18|49=ISLD|52=20180730-11:08:26.127|56=TW|10=047|
2018/07/30 11:08:56.109157 8=FIXT.1.1|9=50|35=0|34=19|49=TW|52=20180730-11:08:56.109|56=ISLD|10=051|
2018/07/30 11:08:56.132884 8=FIXT.1.1|9=50|35=0|34=19|49=ISLD|52=20180730-11:08:56.132|56=TW|10=047|
2018/07/30 11:09:26.110873 8=FIXT.1.1|9=50|35=0|34=20|49=TW|52=20180730-11:09:26.110|56=ISLD|10=033|
2018/07/30 11:09:26.138370 8=FIXT.1.1|9=50|35=0|34=20|49=ISLD|52=20180730-11:09:26.138|56=TW|10=043|
2018/07/30 11:09:56.115606 8=FIXT.1.1|9=50|35=0|34=21|49=TW|52=20180730-11:09:56.115|56=ISLD|10=042|
2018/07/30 11:09:56.144763 8=FIXT.1.1|9=50|35=0|34=21|49=ISLD|52=20180730-11:09:56.144|56=TW|10=044|
2018/07/30 11:10:26.117642 8=FIXT.1.1|9=50|35=0|34=22|49=TW|52=20180730-11:10:26.117|56=ISLD|10=034|
2018/07/30 11:10:26.148015 8=FIXT.1.1|9=50|35=0|34=22|49=ISLD|52=20180730-11:10:26.147|56=TW|10=037|
2018/07/30 11:10:56.121261 8=FIXT.1.1|9=50|35=0|34=23|49=TW|52=20180730-11:10:56.121|56=ISLD|10=033|
2018/07/30 11:10:56.151125 8=FIXT.1.1|9=50|35=0|34=23|49=ISLD|52=20180730-11:10:56.149|56=TW|10=043|
2018/07/30 11:11:26.126487 8=FIXT.1.1|9=50|35=0|34=24|49=TW|52=20180730-11:11:26.126|56=ISLD|10=037|
2018/07/30 11:11:26.156974 8=FIXT.1.1|9=50|35=0|34=24|49=ISLD|52=20180730-11:11:26.156|56=TW|10=040|
2018/07/30 11:11:56.128370 8=FIXT.1.1|9=50|35=0|34=25|49=TW|52=20180730-11:11:56.128|56=ISLD|10=043|
2018/07/30 11:11:56.162840 8=FIXT.1.1|9=50|35=0|34=25|49=ISLD|52=20180730-11:11:56.162|56=TW|10=041|
2018/07/30 11:12:26.132800 8=FIXT.1.1|9=50|35=0|34=26|49=TW|52=20180730-11:12:26.132|56=ISLD|10=037|
2018/07/30 11:12:26.163764 8=FIXT.1.1|9=50|35=0|34=26|49=ISLD|52=20180730-11:12:26.163|56=TW|10=041|
2018/07/30 11:12:56.134019 8=FIXT.1.1|9=50|35=0|34=27|49=TW|52=20180730-11:12:56.133|56=ISLD|10=042|
2018/07/30 11:12:56.164830 8=FIXT.1.1|9=50|35=0|34=27|49=ISLD|52=20180730-11:12:56.164|56=TW|10=046|
2018/07/30 11:13:26.136543 8=FIXT.1.1|9=50|35=0|34=28|49=TW|52=20180730-11:13:26.136|56=ISLD|10=044|
2018/07/30 11:13:26.165845 8=FIXT.1.1|9=50|35=0|34=28|49=ISLD|52=20180730-11:13:26.165|56=TW|10=046|
2018/07/30 11:13:56.139256 8=FIXT.1.1|9=50|35=0|34=29|49=TW|52=20180730-11:13:56.139|56=ISLD|10=051|
2018/07/30 11:13:56.167094 8=FIXT.1.1|9=50|35=0|34=29|49=ISLD|52=20180730-11:13:56.166|56=TW|10=051|
2018/07/30 11:14:26.144280 8=FIXT.1.1|9=50|35=0|34=30|49=TW|52=20180730-11:14:26.144|56=ISLD|10=037|
2018/07/30 11:14:26.169726 8=FIXT.1.1|9=50|35=0|34=30|49=ISLD|52=20180730-11:14:26.169|56=TW|10=044|
2018/07/30 11:14:56.145983 8=FIXT.1.1|9=50|35=0|34=31|49=TW|52=20180730-11:14:56.145|56=ISLD|10=042|
2018/07/30 11:14:56.174854 8=FIXT.1.1|9=50|35=0|34=31|49=ISLD|52=20180730-11:14:56.174|56=TW|10=044|
2018/07/30 11:15:26.147095 8=FIXT.1.1|9=50|35=0|34=32|49=TW|52=20180730-11:15:26.147|56=ISLD|10=043|
2018/07/30 11:15:26.181633 8=FIXT.1.1|9=50|35=0|34=32|49=ISLD|52=20180730-11:15:26.180|56=TW|10=040|
2018/07/30 11:15:56.151383 8=FIXT.1.1|9=50|35=0|34=33|49=TW|52=20180730-11:15:56.151|56=ISLD|10=042|
2018/07/30 11:15:56.183030 8=FIXT.1.1|9=50|35=0|34=33|49=ISLD|52=20180730-11:15:56.182|56=TW|10=046|
2018/07/30 11:16:26.157528 8=FIXT.1.1|9=50|35=0|34=34|49=TW|52=20180730-11:16:26.157|56=ISLD|10=047|
2018/07/30 11:16:26.184131 8=FIXT.1.1|9=50|35=0|34=34|49=ISLD|52=20180730-11:16:26.183|56=TW|10=046|
2018/07/30 11:16:56.161279 8=FIXT.1.1|9=50|35=0|34=35|49=TW|52=20180730-11:16:56.161|56=ISLD|10=046|
2018/07/30 11:16:56.186482 8=FIXT.1.1|9=50|35=0|34=35|49=ISLD|52=20180730-11:16:56.186|56=TW|10=053|
2018/07/30 11:17:26.162900 8=FIXT.1.1|9=50|35=0|34=36|49=TW|52=20180730-11:17:26.162|56=ISLD|10=046|
2018/07/30 11:17:26.192231 8=FIXT.1.1|9=50|35=0|34=36|49=ISLD|52=20180730-11:17:26.191|56=TW|10=048|
2018/07/30 11:17:56.164141 8=FIXT.1.1|9=50|35=0|34=37|49=TW|52=20180730-11:17:56.164|56=ISLD|10=052|
2018/07/30 11:17:56.200478 8=FIXT.1.1|9=50|35=0|34=37|49=ISLD|52=20180730-11:17:56.197|56=TW|10=058|
2018/07/30 11:18:26.167075 8=FIXT.1.1|9=50|35=0|34=38|49=TW|52=20180730-11:18:26.166|56=ISLD|10=053|
2018/07/30 11:18:26.201383 8=FIXT.1.1|9=50|35=0|34=38|49=ISLD|52=20180730-11:18:26.201|56=TW|10=043|
2018/07/30 11:18:56.173041 8=FIXT.1.1|9=50|35=0|34=39|49=TW|52=20180730-11:18:56.173|56=ISLD|10=055|
2018/07/30 11:18:56.202462 8=FIXT.1.1|9=50|35=0|34=39|49=ISLD|52=20180730-11:18:56.202|56=TW|10=048|
2018/07/30 11:19:26.178269 8=FIXT.1.1|9=50|35=0|34=40|49=TW|52=20180730-11:19:26.178|56=ISLD|10=050|
2018/07/30 11:19:26.203471 8=FIXT.1.1|9=50|35=0|34=40|49=ISLD|52=20180730-11:19:26.203|56=TW|10=039|
2018/07/30 11:19:56.179504 8=FIXT.1.1|9=50|35=0|34=41|49=TW|52=20180730-11:19:56.179|56=ISLD|10=055|
2018/07/30 11:19:56.205178 8=FIXT.1.1|9=50|35=0|34=41|49=ISLD|52=20180730-11:19:56.204|56=TW|10=044|
2018/07/30 11:20:26.180820 8=FIXT.1.1|9=50|35=0|34=42|49=TW|52=20180730-11:20:26.180|56=ISLD|10=037|
2018/07/30 11:20:26.206547 8=FIXT.1.1|9=50|35=0|34=42|49=ISLD|52=20180730-11:20:26.206|56=TW|10=036|
2018/07/30 11:20:56.182102 8=FIXT.1.1|9=50|35=0|34=43|49=TW|52=20180730-11:20:56.182|56=ISLD|10=043|
2018/07/30 11:20:56.212675 8=FIXT.1.1|9=50|35=0|34=43|49=ISLD|52=20180730-11:20:56.212|56=TW|10=037|
2018/07/30 11:21:17.043138 8=FIXT.1.1|9=50|35=5|34=44|49=ISLD|52=20180730-11:21:17.041|56=TW|10=041|
2018/07/30 11:21:17.043716 8=FIXT.1.1|9=50|35=5|34=44|49=TW|52=20180730-11:21:17.043|56=ISLD|10=043|
